:020000040800F2
:100000004011002089010008511B00080918000850
:100010004D1B0008050E00087F29000800000000A5
:100020000000000000000000000000002120000887
:100030007514000800000000471D0008ED210008AD
:10004000A3010008A3010008A3010008A301000800
:10005000A3010008A3010008A3010008A3010008F0
:10006000A3010008A3010008A3010008A3010008E0
:10007000A3010008A3010008A3010008A3010008D0
:10008000A3010008A3010008A3010008A3010008C0
:10009000A3010008A3010008A3010008A3010008B0
:1000A000A3010008A3010008A3010008A3010008A0
:1000B000A301000865220008A3010008A3010008AD
:1000C000A3010008A3010008A3010008A301000880
:1000D000A3010008A3010008A3010008812700086C
:1000E000A3010008A3010008A301000800F002F822
:1000F00000F03AF80AA090E8000C82448344AAF188
:100100000107DA4501D100F02FF8AFF2090EBAE885
:100110000F0013F0010F18BFFB1A43F0010318473B
:10012000A0920000C0920000103A24BF78C878C1A5
:10013000FAD8520724BF30C830C144BF04680C60ED
:10014000704700000023002400250026103A28BF35
:1001500078C1FBD8520728BF30C148BF0B60704739
:100160001FB51FBD10B510BD00F06CF81146FFF7AC
:10017000F7FF05F01DFD00F08AF803B4FFF7F2FF6A
:1001800003BC00F08DF8000009488047094800478B
:10019000FEE7FEE7FEE7FEE7FEE7FEE7FEE7FEE737
:1001A000FEE7FEE704480549054A064B7047000094
:1001B00005220008ED000008400B0020401100203F
:1001C000400D0020400D00204FF0000200B5134606
:1001D00094469646203922BFA0E80C50A0E80C5067
:1001E000B1F12001BFF4F7AF090728BFA0E80C5018
:1001F00048BF0CC05DF804EB890028BF40F8042B11
:1002000008BF704748BF20F8022B11F0804F18BF7D
:1002100000F8012B704770477047704710B500F029
:1002200009F8006810BD10B5044600F003F804603A
:1002300010BD000000487047DC0A002000487047ED
:10024000DC0A00207546FFF7F9FFAE460500694657
:10025000534620F00700854618B020B5FFF7A2FFEF
:10026000BDE820404FF000064FF000074FF00008B7
:100270004FF0000B21F00701AC46ACE8C009ACE838
:10028000C009ACE8C009ACE8C0098D46704710B59C
:100290000446AFF300802046BDE81040FFF76DBF75
:1002A00001491820ABBEFEE726000200704721B1CD
:1002B000826842F00102826003E0826822F001025B
:1002C0008260704721B1826842F48072826003E0EC
:1002D000826822F4807282607047014600208A683A
:1002E00002F004020AB1012000E000207047000083
:1002F00030B502460020002350680F4C20400D7995
:100300000C6844EA05242043506090680B4C204060
:10031000D1E902542C434D7944EA450420439060CE
:10032000D06A20F470000C7C641EE4B2234340EADF
:100330000350D06230BD0000FFFEF0FFFDF7F1FF7B
:10034000F0B504460D4600200021092D11DDE068BE
:10035000A5F10A0606EB4607072606FA07F18843C9
:10036000A5F10A0606EB460603FA06F10843E0602B
:100370000CE0206905EB4507072606FA07F18843DC
:1003800005EB450603FA06F108432061072A0FDA58
:10039000606B561E06EB86071F2606FA07F1884398
:1003A000561E06EB860605FA06F10843606322E056
:1003B0000D2A0FDA206BD61F06EB86071F2606FADA
:1003C00007F18843D61F06EB860605FA06F10843B7
:1003D000206310E0E06AA2F10D0606EB86071F26F7
:1003E00006FA07F18843A2F10D0606EB860605FA28
:1003F00006F10843E062F0BD816841F008018160C8
:10040000704721B1826842F4A002826003E08268F2
:1004100022F4A00282607047816841F0040181608B
:1004200070470000F0B58BB056480078401C554925
:10043000087008460078012802D100F087FA9FE092
:1004400050480078022826D14F49886B08F066FA98
:1004500004B24D49086A08F061FA05B24B49886850
:1004600008F05CFA06B24A48B0F90400CDE902652A
:10047000049401904648B0F90200454F0090B7F946
:100480000030444FB7F90420B7F90210B7F9000063
:1004900000F09CF974E03B480078032834D13E49D1
:1004A00048683E4908F0D0F8074608F07DFA84B263
:1004B00039498868394908F0C7F8074608F074FADE
:1004C00086B23549C868354908F0BEF8074608F0D5
:1004D0006BFA85B2002002900390049005902E489C
:1004E000407C00F2DC502C49097C01F2DC51CDE962
:1004F00000102949098801F57A7188B223463246ED
:10050000294600F0AFF83BE01E480078042805D1EA
:1005100023494868002100F049F831E01948007883
:10052000052826D11F48406B1E49C96B1D4A5269D8
:100530001C4BDB6CCDE90732CDE909101948416A43
:100540001148806E184AD2680F4B9B6BCDE903327D
:10055000CDE905010C48006A0C49896823221E2355
:10056000CDE900210290192214210F2000F09EFAFB
:1005700006E004480078062802D1002001490870EE
:100580000BB0F0BD66000020980700206C0700202B
:100590002A00002024000020E00300200080BB444B
:1005A000600700207C0A0020BC0400202DE9F843ED
:1005B00006460F460024AA222146641C27484254BE
:1005C0002146641C425405222146641C42540022E8
:1005D0002146641C42542249304608F065FA8046A0
:1005E00008F0E2F980B200909DF801202146641CD9
:1005F0001A4842549DF800202146641C4254394652
:10060000174808F051FA804608F0CEF980B2009001
:100610009DF801202146641C104842549DF800209A
:100620002046611CCCB20D490A54201FC870002519
:10063000002005E00949095C2944CDB2411CC8B23B
:10064000A042F7DB2046611CCCB204490D54214680
:10065000024802F07DF8BDE8F88300007003002036
:100660000000C8427FB5002400250026AA222146AA
:10067000641C554842542146641C425403222146BE
:10068000641C425400222146641C42549DF80120FF
:100690002146641C42549DF800202146641C4254AB
:1006A0009DF805202146641C42549DF804202046F4
:1006B000611CCCB244490A549DF809202046611CB3
:1006C000CCB241490A549DF808202046611CCCB2A6
:1006D0003D490A549DF80D202046611CCCB23A4990
:1006E0000A549DF80C202046611CCCB236490A54AD
:1006F0009DF821202046611CCCB233490A549DF854
:1007000020202146601CC4B22F4842549DF8252069
:100710002046611CCCB22C490A549DF82420204666
:10072000611CCCB228490A549DF829202046611C3E
:10073000CCB225490A549DF828202046611CCCB231
:1007400021490A549DF82D202046611CCCB21E4937
:100750000A549DF82C202046611CCCB21A490A5438
:100760009DF831202046611CCCB217490A549DF8EF
:1007700030202046611CCCB213490A549DF8352024
:100780002046611CCCB210490A549DF83420204602
:10079000611CCCB20C490A54201FC87000BF00BFB6
:1007A00005E00948405D3044C6B2681CC5B2A542A8
:1007B000F7DB2046611CCCB203490E5421460248A7
:1007C00001F0C6FF7FBD0000700300202DE9F84F47
:1007D00006460F4690469946DDF828B00024A2460A
:1007E0000025AA222146641C574842542146641C15
:1007F000425402222146641C425400222146641CB9
:10080000425400969DF801202146641C42549DF8F4
:1008100000202146641C425400979DF80120214687
:10082000641C42549DF800202046611CCCB246490D
:100830000A54CDF800809DF801202046611CCCB2FE
:1008400041490A549DF800202046611CCCB23E4923
:100850000A54CDF800909DF801202046611CCCB2CE
:1008600039490A549DF800202046611CCCB2364913
:100870000A54CDF800B09DF801202046611CCCB28E
:1008800031490A549DF800202046611CCCB22E4903
:100890000A540B9800909DF801202046611CCCB2B0
:1008A00029490A549DF800202046611CCCB22649F3
:1008B0000A540C9800909DF801202046611CCCB28F
:1008C00021490A549DF800202046611CCCB21E49E3
:1008D0000A540D9800909DF801202046611CCCB26E
:1008E00019490A549DF800202046611CCCB21649D3
:1008F0000A540E9800909DF801202046611CCCB24D
:1009000011490A549DF800202046611CCCB20E49C2
:100910000A54201FC87000BF00BF06E00A48405DAF
:10092000504400F0FF0A681CC5B2A542F6DB204621
:10093000611CCCB2044901F800A02146024801F034
:1009400007FFBDE8F88F0000700300202DE9FC418F
:1009500000240026AA222146641C4F484254214606
:10096000641C425401222146641C42540022214648
:10097000641C42544949886A494908F095F8074679
:1009800007F0CCFF00B201909DF805202146641CC1
:10099000414842549DF804202146641C42543F497A
:1009A000486A3F4908F080F8074607F0B7FF00B2F1
:1009B00001909DF805202146641C374842549DF85B
:1009C00004202146601CC4B2334842543349C86AEB
:1009D000334908F069F8074607F0A0FF00B201901C
:1009E0009DF805202146601CC4B22B4842549DF856
:1009F00004202046611CCCB227490A542948C1680A
:100A0000274808F051F8074607F088FF00909DF846
:100A100003202046611CCCB21F490A549DF80220D5
:100A20002046611CCCB21C490A549DF80120204686
:100A3000611CCCB218490A549DF800202046611C64
:100A4000CCB215490A5401222046611CCCB212498D
:100A50000A541548007800F001022146601CC4B217
:100A60000D484254201F0C49C87000BF002505E006
:100A70000948405D3044C6B2681CC5B2A542F7DBE8
:100A80002046611CCCB204490E542146024801F0B4
:100A90005FFEBDE8FC8100007003002050040020D0
:100AA0000000C842BC040020600000202DE9FC5F6B
:100AB00006460F4690469946DDF830B00024A2461F
:100AC0000025AA222146641CCD4842542146641CBC
:100AD0004254F1222146641C425400222146641CE7
:100AE000425401969DF805202146641C42549DF80D
:100AF00004202146641C425401979DF8052021469C
:100B0000641C42549DF804202046611CCCB2BC49B0
:100B10000A54CDF804809DF805202046611CCCB213
:100B2000B7490A549DF804202046611CCCB2B44950
:100B30000A54CDF804909DF805202046611CCCB2E3
:100B4000AF490A549DF804202046611CCCB2AC4940
:100B50000A54CDF804B09DF805202046611CCCB2A3
:100B6000A7490A549DF804202046611CCCB2A44930
:100B70000A540D9800909DF803202046611CCCB2C9
:100B80009F490A549DF802202046611CCCB29C4922
:100B90000A549DF801202046611CCCB298490A54A1
:100BA0009DF800202046611CCCB295490A540E984D
:100BB00000909DF803202046611CCCB290490A5455
:100BC0009DF802202046611CCCB28D490A549DF844
:100BD00001202046611CCCB289490A549DF80020AE
:100BE0002046611CCCB286490A540F9800909DF8AB
:100BF00003202046611CCCB281490A549DF8022092
:100C00002046611CCCB27E490A549DF80120204642
:100C1000611CCCB27A490A549DF800202046611C20
:100C2000CCB277490A54109800909DF803202046D2
:100C3000611CCCB272490A549DF802202046611C06
:100C4000CCB26F490A549DF801202046611CCCB2F9
:100C50006B490A549DF800202046611CCCB26849BB
:100C60000A54119800909DF803202046611CCCB2D4
:100C700063490A549DF802202046611CCCB26049A9
:100C80000A549DF801202046611CCCB25C490A54EC
:100C90009DF800202046611CCCB259490A54129894
:100CA00000909DF803202046611CCCB254490A54A0
:100CB0009DF802202046611CCCB251490A549DF88F
:100CC00001202046611CCCB24D490A549DF80020F9
:100CD0002046611CCCB24A490A54139800909DF8F2
:100CE00003202046611CCCB245490A549DF80220DD
:100CF0002046611CCCB242490A549DF8012020468E
:100D0000611CCCB23E490A549DF800202046611C6B
:100D1000CCB23B490A54149800909DF80320204619
:100D2000611CCCB236490A549DF802202046611C51
:100D3000CCB233490A549DF801202046611CCCB244
:100D40002F490A549DF800202046611CCCB22C4942
:100D50000A54159800909DF803202046611CCCB2DF
:100D600027490A549DF802202046611CCCB2244930
:100D70000A549DF801202046611CCCB220490A5437
:100D80009DF800202046611CCCB21D490A541698DB
:100D900000909DF803202046611CCCB218490A54EB
:100DA0009DF802202046611CCCB215490A549DF8DA
:100DB00001202046611CCCB211490A549DF8002044
:100DC0002046611CCCB20E490A54201FC87000BFD7
:100DD00000BF06E00A48405D504400F0FF0A681C6E
:100DE000C5B2A542F6DB2046611CCCB2044901F82D
:100DF00000A02146024801F0ABFCBDE8FC9F0000CA
:100E00007003002000BFFEE72DE9F05F06460F46A5
:100E1000914600244AE0601C05B243E004EB440222
:100E200007EBC20252F8241004EB440207EBC202A3
:100E300052F8250007F07CFC82460021504607F05E
:100E400039FD2DD056F82410504607F02DFE83466C
:100E500056F8251007F025FF46F82500A8461CE0A7
:100E600008EB480007EBC00050F82410504607F08C
:100E70001BFE834608EB480007EBC00050F8251026
:100E8000584607F00EFF08EB480107EBC10141F897
:100E9000250008F101000FFA80F8B8F1060FDFDB3A
:100EA000681C05B2062DB9DB601C04B2062CB2DB4F
:100EB000052434E004EB440207EBC20252F824108C
:100EC00056F8240007F034FC46F824004FF07E501A
:100ED00004EB440107EBC10141F8240000251AE0AE
:100EE00004EB440007EBC00050F825A056F824108E
:100EF000504607F0D9FD834656F8251007F0D1FE7D
:100F000046F82500002004EB440107EBC10141F83D
:100F10002500681C05B2A542E2DB601E04B2002C6D
:100F2000C8DA002405E056F8240049F82400601CC3
:100F300004B2062CF7DBBDE8F09F30B502460B4645
:100F4000002011E0002442F82040002108E00024A5
:100F500000EB400503EBC50545F821404C1C21B2D0
:100F60000629F4DB441C20B20628EBDB30BD2DE95A
:100F7000F04F8BB006460F4690469A464FF07E5093
:100F8000099000243DE0E01C58F8209058F8241007
:100F90005AF8240007F090FE0A904946484607F0A8
:100FA00083FD01900A9907F07FFD02900A9907F0EE
:100FB0007BFD8346099907F074FE099049464FF07E
:100FC000804007F071FD4946029007F06DFD8346B1
:100FD0000A9907F069FD03A941F8240049464FF03A
:100FE000404007F061FD02900A9907F05DFD8346DD
:100FF0000A9907F059FDE11C03AA42F82100601C80
:1010000004B2032CBFDB00242BE003A951F8240019
:10101000099907F049FD834656F8241007F014FBA0
:1010200046F82400002518E003AA52F8251052F8CB
:10103000240007F039FD834604EB440007EBC000B1
:1010400050F82510584607F0FFFA04EB440107EB6F
:10105000C10141F82500681C05B2062DE4DB601CC7
:1010600004B2062CD1DB0BB0BDE8F08F2DE9F04FB8
:10107000C5B007460E4614464FF00008DFF83C9214
:101080008F484490002041904290439018213BA803
:10109000FFF79AF8182135A8FFF796F818212FA81E
:1010A000FFF792F890210BA8FFF78EF801200A9025
:1010B00000203D903C903B90824840903F903E9075
:1010C00090E008F101000FFA80F80BA92FA8FFF7B4
:1010D00034FF002518E005EB450057F8200041904B
:1010E00005EB450007EB80004068429005EB4500AA
:1010F00007EB80008068439041AB3BAA0BA92FA867
:10110000FFF735FF681C05B2062DE4DB35AA0BA9F5
:101110002FA8FFF779FE4099084607F0C5FC8246E4
:101120003A99084607F0C0FC8346514607F000FB99
:1011300009903F99084607F0B7FC8346399908465D
:1011400007F0B2FC5946069007F0F2FA82463E9943
:10115000084607F0A9FC05903899084607F0A4FC5A
:101160000490059907F0E4FA06903799084607F0CD
:101170009BFC05903699084607F096FC039035993C
:10118000084607F091FC01903599084607F08CFC61
:101190000090019907F058FA0290039907F054FA69
:1011A0000490059907F050FA8346069907F04CFA27
:1011B0005146079007F048FA0890099907F044FA59
:1011C000449000250CE035AA52F825103BAA52F8AD
:1011D000250007F071FD3BA941F82500681C05B208
:1011E000062DF0DBB8F1140F05DA4946449807F0F4
:1011F00027FDFFF466AF34493E9807F055FC2060A8
:1012000031493F9807F050FC60602F49409807F043
:101210004BFCA06021683B9807F046FC3060616899
:101220003C9807F041FC7060A1683D9807F03CFCD9
:10123000B0604FF07E51206807F03EFD20F0004A7C
:101240002249504607F0FCFC17D34FF07E516068EE
:1012500007F032FD20F0004A1C49504607F0F0FC30
:101260000BD34FF07E51A06807F026FD20F0004A16
:101270001649504607F0E4FC01D200200A9030687D
:1012800020F0004A1249504607F0DAFC0FD370688C
:1012900020F0004A0E49504607F0D2FC07D3B06850
:1012A00020F0004A0A49504607F0CAFC01D200204B
:1012B0000A900A9845B0BDE8F08F00005F70893051
:1012C0000000C8427FD6D03D0AE81C41CDCC4C3E40
:1012D0000000604021B1026842F00102026004E0B7
:1012E00002684FF6FE731A400260704701684FF6BD
:1012F000FE72114001600021016041608160C160A7
:101300004B49884208D14A490839496841F00F01E0
:10131000474A083A51608AE045491431884208D169
:1013200043490839496841F0F001414A083A51609F
:101330007DE03F492831884208D13D490839496854
:1013400041F470613A4A083A516070E038493C31E2
:10135000884208D136490839496841F47041344A15
:10136000083A516063E032495031884208D130492F
:101370000839496841F470212D4A083A516056E015
:101380002B496431884208D129490839496841F418
:101390007001274A083A516049E02549783188426E
:1013A00008D123490839496841F07061204A083A58
:1013B00051603CE01F49884206D1011F096841F095
:1013C0000F01021F116032E01A491431884208D11E
:1013D0001849091F096841F0F001164A121F1160EF
:1013E00025E014492831884208D11249091F0968AB
:1013F00041F470610F4A121F116018E00D493C3131
:10140000884208D10B49091F096841F47041094A13
:10141000121F11600BE007495031884207D105497E
:10142000091F096841F47021024A121F11607047B8
:10143000080002400804024010B50022026847F686
:10144000F0739A430C6A8B6823430C6923434C69FD
:1014500023438C692343CC6923434C6A23438C6A1E
:1014600023431A430260CB6843600B6883604B6878
:10147000C36010BD7047000010B5454800880A28B9
:1014800016DC4349C868434907F0DAFA10D84049E6
:101490004868414907F0D4FB0AD83D4988683D496E
:1014A00007F0CEFA04D83D484088401C3B494880AC
:1014B000374800880A2825DC3549C868354907F0CF
:1014C000BFFA1FD832494868334907F0B9FB19D829
:1014D0002F4988682F4907F0B3FA13D82F4840885E
:1014E000B0F5167F0EDB00202C49488008460078B6
:1014F00020F00100401C08700846007820F002002F
:10150000801C0870224800880A2816DC2049C86818
:10151000214907F095FB10D81D4948681E4907F07E
:101520008FFB0AD81A4988681B4907F089FB04D841
:101530001A488088401C19498880154800880A2864
:1015400024DC1349C868144907F07AFB1ED81049F7
:101550004868114907F074FB18D80D4988680E498E
:1015600007F06EFB12D80D488088B0F5167F0DDBB2
:1015700000200A4988800846007820F001000870A1
:101580000846007820F00400001D087010BD00001F
:10159000E00300200000C8C10000C8416000002036
:1015A0000149C860704700000020024030B5044681
:1015B00004254FF4302000F085F80546042D17D19E
:1015C0000C48006940F002000A490861084644617D
:1015D000006940F0400008614FF4302000F072F8DC
:1015E00005460448006941F6FD710840014908615B
:1015F000284630BD0020024004200B49C96801F094
:10160000010109B101200EE00749C96801F0040198
:1016100009B1022007E00449C96801F0100109B1CD
:10162000032000E0042070470020024003480069C6
:1016300040F080000149086170470000002002402E
:1016400078B506460C46042500200090E80200F01C
:1016500039F80546042D24D11348006940F00100F3
:10166000114908613480E80200F02CF80546042D89
:1016700010D1B01C0090200C00990880E80200F006
:1016800021F805460848006941F6FE710840064900
:10169000086106E00448006941F6FE71084002490D
:1016A0000861284678BD0000002002400248034936
:1016B00048600348486070472301674500200240A6
:1016C000AB89EFCD00B502460423FFF795FF034633
:1016D00003E0FFF791FF0346521E012B01D1002AC0
:1016E000F7D102B90523184600BD2DE9F0410246A5
:1016F00000250026002000230024002791F803C0C5
:101700000CF00F0591F803C00CF0100CBCF1000FA9
:1017100003D091F802C04CEA050591F800C0BCF175
:10172000000F31D0146800202BE04FF0010C0CFAB0
:1017300000F3B1F800C00CEA03069E4220D18300FA
:101740004FF00F0C0CFA03F7BC4305FA03FC4CEA0C
:10175000040491F803C0BCF1280F06D14FF0010C2E
:101760000CFA00FCC2F814C00AE091F803C0BCF106
:10177000480F05D14FF0010C0CFA00FCC2F810C064
:10178000401C0828D1D31460B1F800C0BCF1FF0F91
:1017900034DD546800202EE000F1080C4FF0010801
:1017A00008FA0CF3B1F800C00CEA03069E4221D1FE
:1017B00083004FF00F0C0CFA03F7BC4305FA03FC4F
:1017C0004CEA040491F803C0BCF1280F05D100F1E4
:1017D000080C08FA0CF8C2F8148091F803C0BCF1A8
:1017E000480F07D100F1080C4FF0010808FA0CF877
:1017F000C2F81080401C0828CED35460BDE8F081A8
:10180000416170470161704700BFFEE708B50121E3
:10181000082000F0C5FA4FF48070ADF800001420E5
:101820008DF8030003208DF8020069460F48FFF78A
:101830005CFF4FF40070ADF8000014208DF8030039
:1018400003208DF8020069460848FFF74EFF0A2082
:1018500002F0DAFE4FF480710448FFF7D3FF4FF433
:1018600000710248FFF7CEFF08BD0000000C0140E8
:1018700070B5002400F00EFB002516E06006040E93
:101880004FF480700B49086000F0DEF80948083812
:101890000068C0F3402004434FF480700549091DDF
:1018A000086000F0D1F8681CC5B2082DE6DB2046C0
:1018B00070BD0000100C014070B504460D4600F0EC
:1018C0007BF8204600F012F8284600F00FF800F0F0
:1018D00073F8611CC8B200F009F8FFF7C9FF0646AB
:1018E00000F03AF800F07EF8304670BD70B504465E
:1018F000082500F0DFFA1DE04FF4807015490860FC
:1019000000F0A2F804F0800028B14FF400701149F3
:10191000091F086003E04FF400700E49086060067C
:10192000040E00F091F84FF480700A49091F086016
:1019300000F08AF8281EA5F10101CDB2DCD14FF4E8
:1019400080700449086000F007F800B970BD00BF5E
:10195000FCE70000140C014010B500F0ABFA4FF4A6
:1019600080701449086000F06FF84FF4007011495E
:10197000091F086000F08EFA00F066F84FF48070DE
:101980000C49091F086000F05FF80A480C3800682D
:10199000C0F3402028B14FF4807006490860002051
:1019A00010BD4FF480700349086000F04DF801202D
:1019B000F6E70000140C014010B500F07BFA4FF47C
:1019C0008070074908604000086000F03DF84FF45F
:1019D00000700349091D086000F036F810BD0000D2
:1019E000100C014010B500F065FA4FF480700C49FE
:1019F000086000F029F84FF400700949086000F011
:101A000023F84FF480700649091F086000F01CF8A5
:101A10004FF400700249091F086000F015F810BD6E
:101A2000140C014070B506460C461546FFF7C4FF7E
:101A30003046FFF75BFF2046FFF758FF2846FFF7C9
:101A400055FFFFF7CFFF70BD704700002DE9F04153
:101A500004F0F2FF05F0FAF83349486A334907F019
:101A600023F8804606F0C4FD064605F001FA044658
:101A700006F050F82E4908602B49486A2B4907F0B8
:101A800013F8804606F0B4FD064602F06FFD0446EA
:101A900006F040F8274908602349886A234907F07F
:101AA00003F8804606F0A4FD064605F0E1F9044679
:101AB00006F030F8204908601B49886A1B4906F087
:101AC000F3FF804606F094FD064602F04FFD044603
:101AD00006F020F8194908601349C86A134906F04E
:101AE000E3FF804606F084FD064605F0C1F9044692
:101AF00006F010F8124908600B49C86A0B4906F055
:101B0000D3FF804606F074FD064602F02FFD044622
:101B100006F000F80B4908600B4807C803F06CFAA0
:101B200005F0F6F9BDE8F0815004002035FA8E3C4E
:101B300084000020900000208800002094000020F5
:101B40008C000020980000202C01002000BFFEE740
:101B5000704700001CB510A103C9CDE900010522A2
:101B60006946302000F026FA05226946102000F070
:101B7000EBF9002406E01DF80400182800D003E06B
:101B8000601CC4B2052CF6DB00BF052C01D001207F
:101B90001CBD0020FCE700001818181818000000F1
:101BA00008B501210C2000F0FBF80220ADF8000080
:101BB00010208DF8030069460A48FFF796FD1020B3
:101BC000ADF8000028208DF8030069460648FFF7AD
:101BD0008CFD02210348FFF713FE01210148FFF7A6
:101BE00011FE08BD000C01400008014010B50221A3
:101BF0001348FFF705FE052212492A2000F0DAF902
:101C00000021212000F0F6F90121222000F0F2F954
:101C10000C48401E8179252000F0ECF90B21312081
:101C200000F0E8F90721262000F0E4F90F21202038
:101C300000F0E0F902210248FFF7E4FD10BD0000CA
:101C4000000C0140C900002070B50446072000F0D8
:101C50009BF905462946272000F0CCF905F0400005
:101C600050B10B222146612000F06EF9FF21E220E5
:101C700000F0C0F9002070BD0120FCE770B5002124
:101C800000230F22C47804B3154C246804F4E064E4
:101C9000C4F5E064210AC1F10403CA40447804FA9F
:101CA00003F184781440214309010E4C0678A155B4
:101CB000047804F01F050124AC4005786D11AD00D7
:101CC00005F1E025C5F8004109E0047804F01F059E
:101CD0000124AC40044D0678761145F8264070BDCD
:101CE0000CED00E000E400E080E100E00249014387
:101CF000024A1160704700000000FA050CED00E098
:101D000008B54FF4A060FFF7F1FF1D208DF800002B
:101D100001208DF8010000208DF8020001208DF8CF
:101D200003006846FFF7AAFF27208DF80000002077
:101D30008DF801008DF8020001208DF8030068463F
:101D4000FFF79CFF08BD704701460020034A50681A
:101D500020F44040084350607047000000100240EB
:101D600029B1064A52690243044B5A6104E0034A0E
:101D700052698243014B5A617047000000100240D3
:101D800029B1064AD2690243044BDA6104E0034AEE
:101D9000D2698243014BDA617047000000100240B3
:101DA00029B1064A92690243044B9A6104E0034A4E
:101DB00092698243014B9A61704700000010024013
:101DC00030B500210022002400232D4D6D6805F060
:101DD0000C0121B1042905D0082923D105E0294DA2
:101DE000056022E0274D05601FE0254D6D6805F474
:101DF0007012234D6D6805F48034022505EB924284
:101E00001CB9214D554305600BE01D4D6D6805F46F
:101E100000351DB11C4D5543056002E0194D554379
:101E2000056002E0174D056000BF00BF144D6D68EE
:101E300005F0F0010909154D6B5C0568DD40456052
:101E40000F4D6D6805F4E061090A104D6B5C456843
:101E5000DD4085600A4D6D6805F46051C90A0B4D7F
:101E60006B5C4568DD40C560054D6D6805F440411B
:101E7000890B074D6B5CC568B5FBF3F5056130BD9B
:101E80000010024000127A0000093D00D20000203C
:101E9000E200002008B54FF40070ADF80000042007
:101EA0008DF8030069460248FFF71FFC08BD0000DB
:101EB000000C014008B54FF40070ADF80000102090
:101EC0008DF8030003208DF8020069460148FFF7F2
:101ED0000CFC08BD000C014021B1028842F0400218
:101EE000028004E002884FF6BF731A4002807047F8
:101EF0000246002013890B400BB1012000E00020B6
:101F000070470146888970478181704710B500226B
:101F1000028802F441520B884C8823438C88234367
:101F2000CC8823430C8923434C8923438C89234346
:101F3000CC8923431A430280838B4FF2FF742340E2
:101F400083830B8A038210BD2DE9F04107460D46BD
:101F5000164601210B48FFF753FC384600F02AF9DA
:101F60008046002405E0FF2000F024F92855601C7D
:101F7000C4B2B442F7DB01210248FFF743FC4046FC
:101F8000BDE8F081000C014070B50446012108480D
:101F9000FFF736FC204600F00DF9FF2000F00AF9AB
:101FA000054601210248FFF72DFC284670BD0000C0
:101FB000000C01402DE9F04107460C461546012171
:101FC0000B48FFF71DFC384600F0F4F88046002669
:101FD00005E014F8010B00F0EDF8701CC6B2AE423B
:101FE000F7DB01210248FFF70DFC4046BDE8F08118
:101FF000000C014070B505460C4601210748FFF76B
:10200000FFFB284600F0D6F80646204600F0D2F83E
:1020100001210248FFF7F6FB304670BD000C01407D
:10202000704710B500F002F810BD00000CB500209C
:10203000019000903348006840F4803031490860D6
:1020400000BF3048006800F4003000900198401C48
:102050000190009818B90198B0F5A06FF1D1294806
:10206000006800F4003010B10120009001E0002071
:1020700000900098012843D12348006840F01000E8
:10208000214908600846006820F0030008600846FF
:10209000006840F0020008601A484068194948602A
:1020A0000846406848600846406840F480604860E0
:1020B0000846406820F47C1048600846406840F4B8
:1020C000E81048600846006840F08070086000BF73
:1020D0000C48006800F000700028F9D009484068FA
:1020E00020F00300074948600846406840F00200BD
:1020F000486000BF0348406800F00C000828F9D190
:102100000CBD0000001002400020024000B587B066
:1021100001210420FFF744FE01210820FFF740FEC3
:10212000012141F20100FFF73BFEE020ADF818006D
:1021300018208DF81B0003208DF81A0006A91A48F4
:10214000FFF7D3FA0120ADF8180010208DF81B001E
:1021500003208DF81A0006A91448FFF7C6FA0020DC
:10216000ADF804004FF48270ADF806000020ADF821
:102170000800ADF80A00ADF80C004FF40070ADF89F
:102180000E001020ADF810000020ADF8120007205E
:10219000ADF8140001A90648FFF7B8FE0121044874
:1021A000FFF79AFE07B000BD00080140000C014097
:1021B0000030014010B5044600BF02210A48FFF775
:1021C00097FE0028F9D021460748FFF79DFE00BF83
:1021D00001210548FFF78CFE0028F9D00248FFF7DF
:1021E00090FEC0B210BD00000030014004480068FD
:1021F00020B103480068401E014908607047000094
:102200001400002010B51348006840F00100114987
:10221000086008464068104908400E494860084672
:1022200000680E4908400B4908600846006820F421
:10223000802008600846406820F4FE0048604FF4A3
:102240001F008860FFF7EDFE4FF000600449086052
:1022500010BD0000001002400000FFF8FFFFF6FE76
:1022600008ED00E01CB52D48008800F001000028B2
:102270004DD02B480068401C29490860294805F0CA
:10228000E7FA03F03BFD02F029FE2749274802F058
:102290000FFE25490C31254802F05EFF02F070FD6B
:1022A00021482349426A234801F064FB1E49183142
:1022B0001F4802F04FFD1C481F49826A1D4801F06B
:1022C00059FB02F0A9FF1848006A1749C969164C62
:1022D000CDE90010A36962692169E06803F0EAF9B9
:1022E000FFF7B4FB02F01AFC00F0E8FF01F04CF934
:1022F00001F05EF803F020F801F064FAFFF7BCF893
:1023000001F0AAFFFEF78EF80C4805F0A1FA034889
:10231000008820F00100014908801CBD1004004025
:1023200020000020E80000206801002014010020A7
:1023300020010020080100202C010020F8000020CE
:1023400021B1028842F08002028004E002884FF648
:102350007F731A4002807047CA430282704721B1DE
:10236000028842F00102028004E002884FF6FE7308
:102370001A400280704731B1B0F8442042F4004264
:10238000A0F8442005E0B0F84420C2F30E02A0F803
:10239000442070471AB183890B43838102E083890B
:1023A0008B4383817047000070B500240022002316
:1023B000058C4FF6FE7635400584028C8388048BAD
:1023C0004FF68F752C40B51E2C400D882C43751E82
:1023D0002A400D892A434D882A43144DA8420BD028
:1023E000134DA84208D0134DA84205D0124DA84263
:1023F00002D0124DA84213D14FF6F7752A404D89ED
:102400002A434FF6FB752A408D882A434FF6FF6515
:102410002B404FF6FF552B408D892B43CD892B4305
:1024200083800483CD888586028470BD002C0140A2
:102430000034014000400140004401400048014098
:102440000A460021018B4FF6F773194011430183AF
:102450007047000070B5002400220023058C4FF661
:10246000EF7635400584028C8388048B48F6FF752F
:102470002C404FF6FF452C400D884FF6FF7606EABC
:1024800005252C434FF6DF752A400D8906EA051510
:102490002A434D8806EA05152A43154DA84202D065
:1024A000144DA8421DD14FF67F752A404D894FF635
:1024B000FF7606EA05152A434FF6BF752A408D8838
:1024C00006EA05152A434FF6FF352B404FF2FF75FC
:1024D0002B408D8906EA85052B43CD8906EA8505C3
:1024E0002B4383800483CD880587028470BD000060
:1024F000002C0140003401400A460021018B4FF2BC
:10250000FF7319404FF6FF7303EA02231943018357
:102510007047000070B5002400220023058C4FF6A0
:10252000FF6635400584028C8388848B4FF68F7557
:102530002C404FF6FC752C400D882C434FF6FF5570
:102540002A400D894FF6FF7606EA05252A434D8875
:1025500006EA05252A43154DA84202D0144DA8428B
:102560001DD14FF2FF752A404D894FF6FF7606EADE
:1025700005252A434FF6FF352A408D8806EA0525B2
:102580002A434EF6FF752B404DF6FF752B408D8983
:1025900006EA05152B43CD8906EA05152B438380F2
:1025A0008483CD888587028470BD0000002C0140A3
:1025B000003401400A460021818B4FF6F773194021
:1025C000114381837047000070B50022002300246E
:1025D000058C4EF6FF7635400584038C8488828B0B
:1025E00048F6FF752A404FF6FF452A400D884FF602
:1025F000FF7606EA05252A434DF6FF752B400D8927
:1026000006EA05352B434D8806EA05352B430B4D6D
:10261000A84202D00A4DA84208D14BF6FF752C40C3
:102620008D894FF6FF7606EA85152C4384808283D8
:10263000CD88A0F84050038470BD0000002C0140FC
:10264000003401400A460021818B4FF2FF7319408C
:102650004FF6FF7303EA022319438183704700009A
:10266000002202881D4B98420ED01D4B98420BD081
:10267000B0F1804F08D01B4B984205D01A4B9842BE
:1026800002D01A4B984204D14FF68F731A404B88F0
:102690001A43174B984207D0164B984204D04FF676
:1026A000FF431A40CB881A4302808B8883850B88AE
:1026B00003850A4B98420BD0094B984208D00E4B29
:1026C000984205D00D4B984202D00D4B984201D153
:1026D0000B7A03860123838270470000002C01409F
:1026E000003401400004004000080040000C00409D
:1026F0000010004000140040004001400044014030
:1027000000480140F0B58BB007460C4615461E4602
:1027100001210846FFF724FB3846FEF7E7FD009449
:1027200001951020029003960020049080200590CF
:1027300000200690079008904FF440500990002028
:102740000A9069463846FEF777FE0BB0F0BD0000F0
:1027500070B504460D462B46224607490748FFF749
:10276000D1FF012280210448001F00F03EF8012122
:102770000248FEF7AFFD70BD0444004080000240F7
:1027800010B540F22551094800F038F838B1074833
:1027900000F0F0F806498872887A02F06DFA40F28B
:1027A0002551024800F006F810BD00000048004026
:1027B0007C0A002010B50022002340F66A14A142D2
:1027C00000D100BF0A1201249440A3B2DC4304806C
:1027D00010BD21B1828942F40052828104E08289D5
:1027E0004DF6FF731A40828170471AB1838A0B43FA
:1027F000838202E0838A8B438382704770B50246EE
:10280000002400230025002040F66A16B14200D1C2
:1028100000BFC1F3421501F01F03012606FA03F3BE
:10282000012D02D19689334006E0022D02D1168A8D
:10283000334001E0968A33400C12012606FA04F474
:102840001688344013B10CB1012000E0002070BDA7
:10285000F0B50346002400260025002040F66A1744
:10286000B94200D100BF1846C1F3421401F01F065F
:10287000012707FA06F5012C01D10C3004E0022CE7
:1028800001D1103000E014301AB107682F430760FF
:1028900002E00768AF430760F0BD00002DE9F04794
:1028A00086B005460E460024A24600BFA14600277A
:1028B000B08900B100BF2F462C8A4CF6FF7004404F
:1028C000F08804432C82AC894EF6F3100440B088A3
:1028D00031890843718908430443AC81AC8A4FF6BF
:1028E000FF400440B0890443AC8201A8FFF768FAB6
:1028F0001F48874202D1DDF810A001E0DDF80CA0EE
:10290000A88900F4004040B10AEBCA0000EB0A10AD
:1029100031684900B0FBF1F807E00AEBCA0000EBB0
:102920000A1031688900B0FBF1F86420B8FBF0F0C0
:1029300004012009642101FB1089A88900F40040EA
:1029400040B1322000EBC900B0FBF1F000F007000D
:10295000044308E0322000EB09106421B0FBF1F0E1
:1029600000F00F0004432C8106B0BDE8F0870000A2
:102970000038014001468888C0F30800704700BF56
:10298000FEE7490050EAC12018BF04204A0D18BFD5
:1029900040F0010040F2FF72B2EB515F08BF40F01F
:1029A0000200012808BF052070474100080218BF37
:1029B00004200A0E18BF40F001004FF07F4232EAB7
:1029C000010108BF40F00200012808BF0520704740
:1029D0002DE9F74F144694B00021C4E9021115996E
:1029E000079121F00045C9498D4206DC1599C4E9DB
:1029F000000117B00020BDE8F08FC549DFF814A32F
:102A0000A9423CDD0799C44E0029C44FC44A159918
:102A1000534619DD05F002FD554506D0C14AC24BAB
:102A200005F0FCFCC4E900010AE04FF0D352BE4BB4
:102A300005F0F4FC32463B4605F0F0FCC4E9000129
:102A400017B00120BDE8F08F05F096F8554506D087
:102A5000B44AB54B05F090F8C4E900010AE04FF024
:102A6000D352B14B05F088F832463B4605F084F866
:102A7000C4E9000117B04FF0FF30BDE8F08FAB495B
:102A8000A942159978DB21F0004183468846A84A7F
:102A9000A84B05F0D3FA0022A74B05F06DF805F01E
:102AA00073FA099005F09FFA06460F469C4A534672
:102AB00005F0C4FA43465A4605F0BEFB80468A46F6
:102AC000984A994B3046394605F0B8FA2A0D012547
:102AD0000B924246534605F0AFFB032DC4E90001BB
:102AE00039D00B98C1F30A51401A05EB4511113941
:102AF000814230DA9148C346784400EB0510CDF8A6
:102B00000CA00C90D0E900233046394605F096FA27
:102B100002460B46049106905846039905F07EFC48
:102B200080468A4602460B465846039905F076FCD5
:102B3000049B069A05F072FC83460C980391394673
:102B4000D0E90223304605F079FA5A46039B05F096
:102B500065FC6D1CBDE707980028A2BF099817B057
:102B6000BDE8F08F616881F000416160099817B09D
:102B70004042BDE8F08FFFE784461598C1F313018A
:102B8000C0F30A50A0F2F5304FEA601800F01F06BB
:102B9000C6F12000139000200690079041F4801E9B
:102BA00005206D4676B1664A08EB00017A4452F87A
:102BB000213002EB8101B3404A68139922FA01F1F6
:102BC000194305E05F4908EB0002794451F82210EF
:102BD000A1FB0E27A1FB0C131A449A4234BF012318
:102BE000002303EB070A05EB8003D3E901B70F4489
:102BF0008F4234BF0121002193448B4411B193458E
:102C000002D903E0934501D2012100E00021C3E98C
:102C100001B7514445F82010011EA0F10100C1DCAC
:102C20000298059F00F10050800F12900298DDE994
:102C30000356800005F0D7F9834628460D9105F02C
:102C4000E9F96FF01D0206F0DEF8CDE90E0130461D
:102C500005F0E0F96FF03D0206F0D5F880468A46AF
:102C6000384605F0D7F96FF05D0206F0CCF807465C
:102C700042465346119104F07FFFDDE90E2304F034
:102C80007BFF5A460D9B04F077FF00250E465A46FF
:102C900028460D9B05F0C2FBDDE90E2305F0BEFBC7
:102CA0004246534605F0BAFB3A46119B05F0C4FA7A
:102CB000DFF898A0244A534605F0C0F90746884635
:102CC000234A244B3146284605F0B8F93A46434694
:102CD00004F052FF074688464FF0A842534631465B
:102CE000284605F0ABF93A46434604F045FF159AED
:102CF00012F0004F04D0129A81F000415242129219
:102D0000C4E90001129817B0BDE8F08FFB21E93F3C
:102D10007CD90240FB21F93F7370032E8A19A33B33
:102D2000000040543163621A61B4D03DFB21394147
:102D300083C8C96D305FE43F0000E03F7467000066
:102D4000F0660000D2660000182D4454FB21F93DC6
:102D50003326A611460B113C2DE9FF4D21F000480A
:102D600007460C46B8F1795F08DA05F00DF900283E
:102D700001BF0020324904B0BDE8F08D3A46234639
:102D80001046194605F05AF9054602462D480E46EA
:102D90000B460621784400F05DF82A46334605F0DC
:102DA0004DF9DDE9022382468B463846214605F07F
:102DB00045F904460F4652465B462846314605F023
:102DC0003DF922463B4605F029FB07468A464FF06F
:102DD000FF322846314606F016F81B4A90450ADABB
:102DE0003A46534605F01AFB04B00022BDE8F04D08
:102DF000134B05F021BA154A4245A8BFA8F50015A6
:102E00004FF00004B8BF124D22462B4605F006FBDA
:102E10000646884622462B460020094905F0FEFA60
:102E200004460D463A4653463046414605F0F6FA0A
:102E300004B022462B46BDE8F04D05F0FDB9000078
:102E40000000F03FA06400003333D33F0000E93FAF
:102E50000000D23F2DE9F0414F1E00EBC7010446B0
:102E6000D1E9000115461E4637F006020DD02A466C
:102E7000334605F0E3F87F1E04EBC703D3E90023D4
:102E800004F07AFE37F00602F1D1022F25D0042F8C
:102E900013D0062F18BFBDE8F0812A46334605F04F
:102EA000CDF8D4E90A2304F067FE2A46334605F03C
:102EB000C5F8D4E9082304F05FFE2A46334605F03E
:102EC000BDF8D4E9062304F057FE2A46334605F040
:102ED000B5F8D4E9042304F04FFE2A46334605F042
:102EE000ADF8D4E9022304F047FE2A46334605F044
:102EF000A5F8D4E90023BDE8F04104F03DBE000090
:102F00002DE9FF4D054621F0004084B00C46B0F19C
:102F1000795F0BDA2846FFF734FD042808BF00F07C
:102F2000AFF9284608B02146BDE8F08D2A460B4689
:102F3000104605F083F806460F462A46234605F05C
:102F40007DF8804626488A4632463B46052178442D
:102F5000FFF780FF83461098029160B3214A224B0D
:102F60004046514605F06AF8CDE900015A46404610
:102F70005146029B05F062F882468846DDE906016B
:102F80004FF0FF3205F03FFF5246434605F046FA48
:102F900032463B4605F052F8DDE9062305F03EFADD
:102FA000DDE9002305F03AFA08B02A462346BDE8D9
:102FB000F04D05F041B90B465A463046394605F00A
:102FC0003DF8084A084B04F0D7FD4246534605F049
:102FD00035F808B02A462346BDE8F04D04F0CCBDD4
:102FE000E6630000495555555555C5BF2DE9F04DCF
:102FF00004468CB0904821F00047164698460D468E
:103000000991874206DA2046294604F0BDFF0028D0
:1030100000F0AE808948B8421CDC09980028BCBF8B
:1030200085F0004588F00048854A864B20462946B1
:1030300005F002F904460D4632464346824883496C
:1030400005F0ECF922462B4604F096FD00260446D6
:103050000D46B04622462B461046194604F0EEFFB8
:103060008B46824602460B4604F0E8FF0246089073
:1030700077480B46009106217844FFF7EBFECDE937
:103080000310744806217844009B089AFFF7E2FE7B
:1030900052465B4604F0D2FFCDE9051052465B462E
:1030A0002046294604F0CAFF07910090DDE903108D
:1030B000DDE9053204F060FD079B009A04F0BEFFD5
:1030C0003246434604F058FD52465B4604F0B6FFD4
:1030D0003246434604F050FD80460E465E4A5F4B42
:1030E0000799009804F0AAFF4246334604F044FDD5
:1030F00082468B4622462B4604F03EFD80464F48D2
:103100000E46B84214985BDC04F06DFF0746424659
:103110003346059104F030FDCDE9011042463346B7
:103120001046194604F08AFFDDE9013204F0D4FDAF
:1031300052465B4605F072F922462B4605F07CF8B4
:10314000012205F060FE3A46059B05F075F804463D
:103150000D460998022101EAA070C0F1010004F0B7
:1031600042FF0CB022462B46BDE8F04D04F066BF8E
:103170001498401C384320430BD01498012812D0D7
:103180000CB022462B46BDE8F04D0020344904F037
:10319000A3BD0CB025F000432246BDE8F04D002051
:1031A000304904F099BD20462946FFF7EAFB042880
:1031B00008BF00F065F820460CB02946BDE8F08D48
:1031C000012802BF40460CB0BDE8F08D00270B4639
:1031D0003A462046294605F02FF852465B4605F050
:1031E0002BF804460D464246334600201C4904F0A5
:1031F00073FD83463A4688463346104604F01EFF68
:103200000022184B04F0B8FC06468A4622462B469C
:103210003846414604F012FF3246534604F0ACFCF7
:103220005A46434604F00AFF0CB03A464346BDE80E
:10323000F04D04F0A1BC00000000303E2894E53FB2
:10324000182D4454FB21E93F075C143326A6813C2A
:10325000E462000006630000635555555555D53F9F
:103260000000F0BF0000F03F012205F0CCBD04F0EB
:1032700083BC002213461046114604F02DBD000009
:10328000024A0020110705F0BEBD000001FDFFFF4E
:1032900000214FF07E5005F04BBA05F0D5B9002162
:1032A000084605F045BA61214FF0E04005F0D9BD70
:1032B0006FF05E01080705F0D4BD0000344890F8B7
:1032C0002400C0F3001090B93248007820F00F00BD
:1032D000401C304908702E4881682F4841632C48B3
:1032E00040682D4988602A4800882C494880284831
:1032F00090F82400C0F3001008B32948007858B9AA
:1033000023480088254908802648816E2248C0F855
:1033100068110120224908702148007801280ED147
:103320001C48007820F00F00801C1A4908701848CB
:1033300081681948416316484068174988601448F5
:1033400090F824000121B1EBD01F20D1104890F853
:103350002400C0F30010D0B11348007860B91348BE
:10336000416A0D48C0F8EC111048816A0A48C0F85B
:10337000701201200C4908700B480078012806D112
:103380000448007820F00F00C01C02490870704704
:10339000E0030020AC000020CC040020A8000020A6
:1033A000B600002098070020B70000207C0A00200B
:1033B0002DE9F0416C48007800F0010000287CD035
:1033C0006A4800880A287ADD6949488805F024FBA4
:1033D00007466848D0F8A810384605F035F9064683
:1033E0006448D0F8D410304605F066FC05466148C4
:1033F000D0F80011284605F027F9044605F0D4FA64
:103400005D4908805A49488805F006FB0746594837
:10341000D0F8A810384605F017F906465548D0F8F8
:10342000D410304605F010F905465248D0F8001186
:10343000284605F041FC044605F0B6FA4F490880DD
:103440004B49488805F0E8FA07464A48D0F8A810E2
:10345000384605F031FC06464648D0F8D4103046D0
:1034600005F0F2F805464348D0F80011284605F06B
:10347000EBF8044605F098FA414908803C49488831
:1034800005F0CAFA07463B48D0F8A810384605F0C0
:1034900013FC06463748D0F8D410304605F00CFC33
:1034A00005463448D0F80011284605F005FC0446CE
:1034B00005F07AFA3349088049E028E0FFE72B4815
:1034C00000882D490880294800882C490880274811
:1034D00000882B490880254800882A49088025480B
:1034E00001F040F82348843001F03CF821482C30AA
:1034F00001F038F81F48B03001F034F81D4858305A
:1035000001F030F81B48DC3001F02CF81FE00020FF
:103510001949088019490880194908801949088003
:10352000144801F01FF81348843001F01BF81148CB
:103530002C3001F017F80F48B03001F013F80D48A7
:10354000583001F00FF80B48DC3001F00BF80D4C4F
:1035500023880B4C2288094C2188074C208803F0D3
:1035600061F9BDE8F081000060000020E003002068
:10357000A8000020CC040020AE000020B0000020F5
:10358000B2000020B400002010B51148007800F00F
:103590000F00012804D0022807D0032815D10BE022
:1035A00000F0C6FA01F006FF10E001F029FF00F07C
:1035B000BFFA01F0FFFE09E001F022FF01F0A0F8E0
:1035C00000F0B6FA01F0F6FE00E000BF00BF10BD4B
:1035D000AC0000200A6802604A6842608A68826023
:1035E0007047000070B586B0044670480079002826
:1035F0007ED06E4880686E49884237D26D49206817
:1036000005F052FA06464FF08B4105F091F8054659
:1036100066488169284605F017F86449886165495C
:10362000606805F041FA06464FF08B4105F080F8DE
:1036300005465E48C169284605F006F85B49C86141
:103640005C49A06805F030FA06464FF08B4105F062
:103650006FF805465548016A284604F0F5FF5349BE
:10366000086208468068401C886037E000204F49A7
:1036700088608869504905F05BF84C49097901EB8D
:1036800041024A49243141F822002439C8694A4993
:1036900005F04EF84549097901EB410243492431CF
:1036A00001EB820148604149086A434905F040F84E
:1036B0003E49097901EB41023C49243101EB820189
:1036C000886000213948183003F0CEFB01213748CB
:1036D00002790F3081540020344908713348007C4E
:1036E0003249497C08403149897C08402F4900E033
:1036F00059E0C97C08402D49097D08402B49497D86
:10370000084000284FD001202849887500250FE087
:103710006A1C02EB4203254A243202EB830105EBCB
:103720004502264B03EB8200FFF754FF681CC5B22D
:10373000062DEDDB1D4A9C32A2F118011F48FDF752
:1037400095FC1A4948730846407B01281ED11C4845
:10375000406A1B49096A1A4AD269144BD3F8A4304B
:10376000CDE90232CDE904101048D0F8A0000F498D
:10377000D1F89C10CDE900100C48D0F88C30D0F86E
:103780008820D0F88410242001F044F9012005E0BD
:10379000002206490F310A54411CC8B20728F7DB42
:1037A00000200249087306B070BD000058020020D6
:1037B000F04902000AE81C41007C12481C0300206A
:1037C0002402002010B5674890F82400C0F381005F
:1037D000012810D163494868634905F031FA0AD8D5
:1037E00060498868614905F02BF904D86048008871
:1037F000401C5F4908805B4890F82400C0F38100BA
:1038000001282FD157494868574905F019FA29D896
:1038100054498868554905F013F923D8544800885D
:10382000B0F5167F1EDB0020514908800120087387
:10383000887301240AE004EB44024D49243101EB72
:103840008200002103F010FB601CC4B2072CF2DBE5
:10385000012005E0002246490F310A54411CC8B23C
:103860000728F7DB4248007B01287AD13D4890F8D1
:103870002400C0F38100002873D13A49C8683B494D
:1038800005F0DEF80BD83A484088401C384948809B
:1038900008464088B0F5967F01D101200871314972
:1038A0008868324905F0CCF80BD831484088401C74
:1038B0002F49488008464088B0F5967F01D1022004
:1038C000087128498868284905F0BAF90BD82848B2
:1038D0004088401C2649488008464088B0F5967FBD
:1038E00001D1032008711F494868204905F0A8F854
:1038F0000BD81F484088401C1D4948800846408816
:10390000B0F5967F01D10420087116494868164920
:1039100005F096F90BD816484088401C1449488099
:1039200008464088B0F5967F01D1052008710D4901
:10393000C8680D4905F084F90BD80D484088401C33
:103940000B49488008464088B0F5967F01D1062093
:10395000087107484088B0F5967F02DD00200449D1
:10396000488010BDE00300200000C8410000C8C12D
:10397000580200202DE9F04105460C461646216804
:10398000286805F099F98046314605F08DF807461C
:10399000216804F059FE20606168686805F08CF9C0
:1039A0008046314605F080F80746616804F04CFE19
:1039B0006060A168A86805F07FF98046314605F08F
:1039C00073F80746A16804F03FFEA060BDE8F081EF
:1039D00000B585B001214802FEF7E2F901208DF81B
:1039E0000500002003904FF460200290002000901A
:1039F00001208DF8100000208DF80400694616485B
:103A0000FCF776FC01211448FCF751FC0121124817
:103A1000FCF758FC4FF44040FEF796F907230122CB
:103A200011460D48FCF78CFC0B48FCF7E5FC00BF89
:103A30000948FCF752FC0028FAD10748FCF7ECFCD7
:103A400000BF0548FCF749FC0028FAD101210248D3
:103A5000FCF7D7FC05B000BD0024014008B50121EA
:103A60000420FEF79DF90220ADF8000000208DF83B
:103A7000030069460148FDF738FE08BD0008014013
:103A800010B5FFF7EBFFFFF7A3FF00F0F1FD10BD4E
:103A900000B50021234802F02BFB012121482C30E6
:103AA00002F026FB02211F48583002F021FB0321BF
:103AB0001C48843002F01CFB04211A48B03002F08C
:103AC00017FB05211748DC3002F012FB06211648CF
:103AD00002F00EFB072114482C3002F009FB0821EC
:103AE0001148583002F004FB09210F48843002F0DD
:103AF000FFFA0A210C48B03002F0FAFA0B210A480A
:103B0000DC3002F0F5FA0C21084802F0F1FA0D2140
:103B100006482C3002F0ECFA0E210448583002F02E
:103B2000E7FA00BDCC040020D4050020DC0600200C
:103B300010B52048816A204881632C3002F086FA53
:103B40001C48406A1C49C860084602F07FFA1B48BE
:103B50000088B0F5967F05DA18480088401C1749A0
:103B6000088026E01649C868002104F0A3FE15D19C
:103B70001149086E002104F09DFE03D10D48C16A71
:103B80000D4801660B48C16A0B484166583002F087
:103B90005DFA0948C16FC0F8E4100AE00021064848
:103BA00001660749C868074904F07EFF0249C1F869
:103BB000E40010BD50040020CC040020BA00002016
:103BC000E00300200000A0402DE9F04D8D4F21F0D2
:103BD000004A86B005460C46BA452ADBAAEB070028
:103BE00028430AD08848824501DC1AD1CDB106B0FD
:103BF0002846BDE8F04DFFF737BB844A844B284682
:103C000004F01CFA07460E46824A834B284621469A
:103C100004F014FA06B03A463346BDE8F04D03F01E
:103C2000ABBF0120FCF7FFFA06B0BDE8F04DFFF78F
:103C300020BB7A48824542DABAF1795F0BDA28462E
:103C4000FEF79FFE042808BFFFF71AFB284606B0C0
:103C50002146BDE8F08D2A460B46104604F0EEF9E9
:103C6000834602466E480E460B4606217844FFF70F
:103C7000F1F85A46334604F0E1F9804669488A462D
:103C80005A46334604217844FFF7E4F85A4633464F
:103C900004F0D4F900223B4603F06EFF02460B46C7
:103CA0004046514604F018F82A46234604F0C6F967
:103CB00006B02A462346BDE8F04D03F05DBF284616
:103CC00024F0004100223D463B4604F0B5FA4FF097
:103CD000FF3205F098F80646024653480F460B4659
:103CE00006217844FFF7B6F832463B4604F0A6F9C1
:103CF000CDE900014D4832463B4604217844FFF7A8
:103D0000A9F832463B4604F099F900222B4603F00D
:103D100033FF834602913046394603F020FD80464A
:103D200043480D46504517DCDDE900015A46029B29
:103D300003F0D2FF42462B4604F080F942462B4660
:103D400003F01AFF012205F05EF8304A304B04F010
:103D500065FB304A304B4CE04FF0000A52460B46B0
:103D6000404603F009FFCDE9031052462B461046AA
:103D7000194604F063F932463B4604F05DFADDE98A
:103D8000033203F0A9FF06460F46DDE900015A465B
:103D9000029B03F0A1FF8346009101223046394681
:103DA00005F031F8194A1A4B04F046FA06460F4658
:103DB00001224046294605F026F85A46009B04F0A9
:103DC0003DF932463B4604F029FB06460F460122E8
:103DD0005046294605F017F80E4DDFF858802A4660
:103DE000434604F029FA32463B4604F025FA2A46B7
:103DF000434604F021FA002CD8BF81F0004106B000
:103E0000BDE8F08D0000F03F0000F07F075C143348
:103E100026A6913C182D4454FB21F93F0000E03FB9
:103E2000A0530000B65300002A5300004053000086
:103E30003333EF3FFB21E93F2DE9F84F04460D46B0
:103E400021F0004000917349814211DC724988429F
:103E500001DC06D12CB120462946BDE8F84FFFF71A
:103E600003BA6E48002DCCBF6D496E49BDE8F88F8E
:103E70006D49814211DD6D498142D8BF4FF0FF3657
:103E80006DDD20462946FEF77CFD042808BFFFF7BC
:103E9000F7F920462946BDE8F88F6549654F25F0BA
:103EA0000045814233DD6449814219DD00263246F6
:103EB0004FF080432046294603F05EFE80468A4646
:103EC00001222046294604F09EFF00223B4604F0D2
:103ED000A5FA4246534603F0FFFE04460D463EE077
:103EE00001260022BA463B462046294603F044FEFE
:103EF00080460F46002253462046294604F08EFA9B
:103F000042463B4603F0E8FE04460D4627E04B4997
:103F100081421BDDDFF828A10226002253462046FD
:103F2000294604F08BF800223B4603F025FE80462C
:103F30000F46002253462046294604F06FFA4246B7
:103F40003B4603F0C9FE04460D4608E00326224620
:103F50002B4600203B4903F0BFFE04460D46224697
:103F60002B461046194604F069F88B4682460246F5
:103F70000B4604F063F807460246334888460B4672
:103F800006217844FEF766FF52465B4604F056F879
:103F900082462E488B463A46434605217844FEF732
:103FA00059FF3A46434604F049F802460B46002EB4
:103FB000504659460CDA03F0DFFD22462B4604F04A
:103FC0003DF801B022462B46BDE8F04F04F034B96D
:103FD00003F0D2FD22462B4604F030F81C4A7A4406
:103FE00002EBC603D3E9002304F018FA22462B465D
:103FF00004F014FA174A7A4402EBC603D3E900230B
:1040000004F01AF9009A002AB8BF81F00041BDE817
:10401000F88F0000000010440000F07F182D445479
:10402000FB21F93FFB21F9BF0000DC3F0000203EEF
:104030000000F33F0000F03F0000E63F0080034037
:104040000000F83F0000F0BF825200004052000024
:10405000DE510000A65100002DE9F04D9446CCF150
:10406000000423F000464CEA0404524F46EAD4749C
:104070009A46884621F00042BC4206D8454240EAB2
:10408000050442EAD474BC4204D9BDE8F04D62464E
:10409000FFF7EDB8AAF14055A5F17F6555EA0C048C
:1040A0000BD0022404EAAA74434DDFF810E144EA7D
:1040B000D87452EA000B04D00CE0BDE8F04DFFF7D5
:1040C000BBBE002C14BF012CBDE8F08D022C30D0FB
:1040D000032C32D056EA0C0B0AD0BE4220D1BA4291
:1040E00009D126F0804622F080423346114617E07F
:1040F00000291ADB25E0DFF8C8B0FB44002C04BF20
:10410000DBE90001BDE8F08D012C02BFDBE9000115
:1041100081F00041BDE8F08D022C0AD0032C0CD0B8
:10412000BA4212D1B8F1000F0BDA23482549BDE895
:10413000F08D28462449BDE8F08D28467146BDE83B
:10414000F08D1D482149BDE8F08D921B12153C2AC7
:10415000C4BF19481D490EDCBAF1000FBEBF12F1F1
:104160003C0F0020014606DB624603F0B5FD21F05E
:104170000041FFF761FE002C08BFBDE8F08D012C67
:1041800004BF81F00041BDE8F08D114A114B022CB3
:1041900007D004F043F92A46BDE8F04D0A4B04F07D
:1041A0003DB904F03BF92A46BDE8F04D064B04F05A
:1041B00043B800000000F07F182D4454FB2109C0D3
:1041C0006A510000FB21F9BFFB210940FB21F93FA7
:1041D000075C143326A6A13CF0B504460D461646EE
:1041E00000271B4800880F2804DA19480088401C63
:1041F00017490880164800880F2827D115480088DD
:10420000322804DA13480088401C124908801148FB
:104210000088322803D100200E49088001270020A1
:104220000B490880012C02D1012001F01DFA012D5B
:1042300002D1022001F018FA012E02D1032001F070
:1042400013FA012B02D1042001F00EFA3846F0BD1A
:10425000180000201A00002010B500249E480078A5
:10426000C0F3400078B101231A4619461846FFF7FB
:10427000B3FF0446012C05D19748007820F00200D6
:104280009549087027E194480078C0F3800078B120
:1042900001231A4619461846FFF79EFF0446012CD3
:1042A000F0D18D48007820F004008B49087012E1AD
:1042B0008A48807B01280CD1012300221946104630
:1042C000FFF78AFF0446012CDCD100208349887364
:1042D00001E182480079012807D10123002211461B
:1042E0001046FFF779FF0446F5E07C480079022884
:1042F00007D10023012211461846FFF76DFF04463F
:10430000E9E076480079032807D10123002211460D
:104310001846FFF761FF0446DDE070480079042885
:1043200007D100231A4601210846FFF755FF04462E
:10433000D1E06A480079052807D101231A460021F7
:104340000846FFF749FF0446C5E06448007906289F
:1043500007D10023012219461846FFF73DFF044606
:10436000B9E05E48807D01280CD101231A46194628
:104370001846FFF731FF0446012C98D10020574919
:104380008875A8E05648407901280CD10023012205
:1043900019461046FFF720FF0446012C02D10020E9
:1043A0004F49487197E04F4890F82500C0F38000CE
:1043B000B0B14D480078401C4B4908700846007861
:1043C0007D2806DA0023012219461046FFF704FF74
:1043D00081E00123002219461046FFF7FDFE7AE036
:1043E0004248007A012806D101231A461946184688
:1043F000FFF7F2FE6FE03B4890F82400C0F3411055
:10440000012816D13448007800F0010088B100235B
:104410001A4601210846FFF7DFFE0446012C5AD157
:10442000304890F8240020F060002E4981F82400E4
:1044300051E02C4890F82400C0F34110022816D116
:104440002548007800F0010088B101231A460021B8
:104450000846FFF7C1FE0446012C3CD1214890F8E4
:10446000240020F060001F4981F8240033E01D483B
:1044700090F8250000F00300012811D1002301224B
:1044800011461846FFF7A8FE0446012C23D1154813
:1044900090F8250020F00300124981F825001AE069
:1044A000104890F8250000F00300022811D10123E4
:1044B000002211461846FFF78FFE0446012C0AD150
:1044C000084890F8250020F00300064981F82500EF
:1044D00001E001F093F810BD6000002058020020B8
:1044E00024020020E00300201C00002060070020C0
:1044F0002DE9FE4F06460C461546A660E168A86801
:1045000004F0D2FA02902169686804F0CDFA82467C
:104510002168686904F0C8FA01906168286904F0AC
:10452000C3FA0090A168E86804F0BEFA83460099D7
:1045300004F08AF88146019904F086F880465146D5
:1045400004F0BAFB0746029904F0B6FB60616068AC
:104550002060A06860602069E06061692161606935
:10456000BDE8FE8F0021C1617047000000B5244BFB
:1045700021F0004287B09A42DCBF0022134629DDB9
:10458000204B9A4208D140B94FF00100FBF74BFE97
:10459000FEF76FFE07B000BD03DBFEF765FE07B058
:1045A00000BD02AAFEF714FA10F0030104BF0DF1DA
:1045B000080C9CE80F000DD0012001290ED0022923
:1045C00014D00DF1080C00909CE80F00FEF798FC49
:1045D00007B000BDFEF7C0FB07B000BD0DF1080C31
:1045E00000909CE80F00FEF78BFC05E00DF1080C35
:1045F0009CE80F00FEF7B0FB07B081F0004100BD62
:10460000FB21E93F0000F07F00B970474FF47A7159
:1046100041430D4A116000214FF0E02291611146A3
:10462000096941F00101116100BF074909680029CA
:10463000FBD14FF0E021096921F001014FF0E022A8
:10464000116100BFE1E700001400002070B50546CD
:104650000E4614463146284604F0F2FA05D22146A9
:10466000284604F0EDF900D20025284670BD000070
:1046700000B58BB001210846FDF772FB01200390C5
:10468000002002900A900E4801904FF4806007903D
:1046900080200590202008900A4800908015069000
:1046A000002004904FF48050099069460648FCF7BA
:1046B000C3FE01210448FCF70DFE0BB000BD000055
:1046C000BC0000204C2401400800024010B50A48FC
:1046D0004088A0F5AF70C82148434FF4AF7190FBFC
:1046E000F1F4204604F080F90449C1F83C010021AE
:1046F0000248C0F8681110BDE0030020CC0400207F
:1047000010B550494868002104F0D4F864D14D49EF
:104710008868002104F0CEF85ED14B49D1F8EC0155
:10472000002104F0C7F806D14749D1F870020021F2
:1047300004F0C0F802D04548007880B90120434910
:1047400008704348406A80F000413F48C0F8EC11CF
:104750003F48806A80F000413B48C0F870123C48F6
:10476000406A80F000413848C0F8F0113848806A4B
:1047700080F000413448C0F8741200F5F27001F086
:1047800065FC344801F062FC2F48D0F80812C0F8EC
:10479000C011D0F88C12C0F844122D48C06B80F0C4
:1047A00000412948C0F8C4112948006C80F000413C
:1047B0002548C0F8481200F5DC7001F047FC254898
:1047C0002C3801F043FC2048D0F8DC114163D0F8CC
:1047D00060021D49886033E01A4988681E4904F068
:1047E00063F91949C1F8C001164948681A4904F02B
:1047F0005BF91549C1F844021548C06B80F00041CF
:104800001148C0F8C4111248006C80F000410E48F5
:10481000C0F8481200F5DC7001F018FC0D482C3887
:1048200001F014FC0848D0F8DC114163D0F86002B4
:104830000549886000210448C0F8EC11C0F87012E6
:1048400010BD0000E0030020CC040020B8000020D0
:104850007C0A0020340700200000A0412DE9F04F21
:1048600089B004460F4690469946DDE912AB002612
:10487000002567480444206838606068C8F8000074
:10488000A068C9F80000E068CAF800002069CBF809
:104890000000616914980160A16915980160E169DF
:1048A00016980160216A17980160FCF7BFFE00BFEF
:1048B00005E014F8010B0DF80600701C86B2242EDA
:1048C000F7DB9DF80000FF280DD19DF80100FF28BF
:1048D00009D19DF80200FF2805D19DF80300FF28AB
:1048E00001D145F001059DF80400FF280DD19DF888
:1048F0000500FF2809D19DF80600FF2805D19DF885
:104900000700FF2801D145F002059DF80800FF28A7
:104910000DD19DF80900FF2809D19DF80A00FF2854
:1049200005D19DF80B00FF2801D145F004059DF845
:104930000C00FF280DD19DF80D00FF2809D19DF82E
:104940000E00FF2805D19DF80F00FF2801D145F08A
:1049500008059DF81000FF280DD19DF81100FF28D3
:1049600009D19DF81200FF2805D19DF81300FF28FA
:1049700001D145F010059DF81400FF280DD19DF8D8
:104980001500FF2809D19DF81600FF2805D19DF8D4
:104990001700FF2801D145F020059DF81800FF28D9
:1049A0000DD19DF81900FF2809D19DF81A00FF28A4
:1049B00005D19DF81B00FF2801D145F040059DF869
:1049C0001C00FF280DD19DF81D00FF2809D19DF87E
:1049D0001E00FF2805D19DF81F00FF2801D145F0DA
:1049E00080059DF82000FF280DD19DF82100FF28AB
:1049F00009D19DF82200FF2805D19DF82300FF284A
:104A000001D145F48075284609B0BDE8F08F00005B
:104A100000F000082DE9F04F89B004460D46164617
:104A20001F46DDE914ABDDE9128924216846FBF756
:104A3000CBFB009501960297CDF80C80CDF8109035
:104A4000CDF814A0CDF818B01698079017980890D4
:104A5000FCF72CFE3420FCF7A3FD2E48FCF7A6FD46
:104A60002D4908700846007804284DD1294AA0181D
:104A70000099FCF7E5FD28490870264A2244101DDC
:104A80000199FCF7DDFD24490870224A224402F115
:104A900008000299FCF7D4FD1F4908701D4A224402
:104AA00002F10C000399FCF7CBFD1B490870194A71
:104AB000224402F110000499FCF7C2FD1649087067
:104AC000144A224402F114000599FCF7B9FD124979
:104AD0000870104A224402F118000699FCF7B0FD54
:104AE0000D4908700B4A224402F11C000799FCF79B
:104AF000A7FD09490870074A224402F120000899DD
:104B0000FCF79EFD04490870FCF790FD09B0BDE874
:104B1000F08F000000F00008C00000202DE9F047F1
:104B20003E49B1F90E0003F05FFF04463B4841697E
:104B3000204603F089FD39494861B1F9100003F0BE
:104B400053FF044635488169204603F07DFD334913
:104B500088613349886A334903F0A6FF824603F02F
:104B600047FD064602F03AFE044600222E4B03F0B3
:104B700065FA804602F0CEFF2849C8642849486A91
:104B8000284903F091FF824603F032FD804602F08F
:104B900025FE06460022244B03F050FA044602F09C
:104BA000B9FF1E4908650A46D16C506904F084F8C3
:104BB00004461E4903F078FF184948620A46116D01
:104BC000906904F079F80446184903F06DFF134921
:104BD00088620A46D169506A04F06EF804461449A6
:104BE00003F062FF0D4948630A46116A906A04F0B7
:104BF00063F804460E4903F057FF084988630846E6
:104C0000406AC8610846816A016200F13C01826D18
:104C1000343000F00FF8BDE8F08700007C0A002077
:104C20005004002035FA8E3C0024A3400AD7A33D4F
:104C30000000F0412DE9F04105460C46164621687A
:104C4000286804F039F88046314603F02DFF074606
:104C5000216803F0F9FC20606168686804F02CF8B2
:104C60008046314603F020FF0746616803F0ECFC04
:104C70006060BDE8F081000010B50021344A127B6D
:104C800022B1012A14D0022A5AD123E0FE280BD1E6
:104C900001222F4B1A731A46D37AD27A521C2C4C0B
:104CA000E2722246D05402E00022294B1A734CE0F3
:104CB00004280BD10222264B1A731A46D37AD27AD1
:104CC000521C234CE2722246D05402E00022204BB8
:104CD0001A733AE01E4AD37AD27A521C1C4CE27202
:104CE0002246D054D27A092A29D1002223461A73A7
:104CF000DA721A469278DB781A4423461B791A44F2
:104D000023465B791A44D1B2AA2818D12246927957
:104D10008A4214D12246D279302A10D12246D27842
:104D2000120212B223469B781A432346DA811A46AE
:104D30005279120212B21B791A4323461A8204E0F6
:104D40000022034B1A73DA7200BF00BF10BD0000CF
:104D50007C0A002070B504460D464FF0665120686D
:104D600003F0A2FE28604FF06651606803F09CFEDD
:104D700068604FF06651A06803F096FEA86070BDB1
:104D800070B53B2000F084F800B2344908803D2023
:104D900000F07EF800B2314948803F2000F078F8FA
:104DA00000B22E4988802E49D1F8AC004FF08B41DB
:104DB00003F07AFE06462B4903F0BAFC0446274965
:104DC000B1F9000003F010FE06462548D0F8B810EF
:104DD000304603F069FE0546214603F06DFF224987
:104DE00008601F49D1F8B0004FF08B4103F05CFE22
:104DF00006461C4903F09CFC04461849B1F9020020
:104E000003F0F2FD06461648D0F8BC10304603F019
:104E10004BFE0546214603F04FFF134948601049F9
:104E2000D1F8B4004FF08B4103F03EFE06460D4929
:104E300003F07EFC04460949B1F9040003F0D4FDF7
:104E400006460748D0F8C010304603F02DFE054650
:104E5000214603F031FF0449886070BD2400002022
:104E6000580200200AE81C4108010020064800689A
:104E7000064908600448001F006848600248083876
:104E80000068886070470000F0F7FF1F640300208F
:104E900070B504462146D020FCF70EFD0546601C87
:104EA000C1B2D020FCF708FD064606EB052070BD18
:104EB00070B504460D460849206803F0F5FD2860EA
:104EC0000549606803F0F0FD68600349A06803F0DD
:104ED000EBFDA86070BD000090C1793D70B5432026
:104EE000FFF7D6FF064603F07FFD05462A48016816
:104EF000284603F0E1FE044603F010FD00B2274906
:104F000008804520FFF7C4FF064603F06DFD054607
:104F100021484168284603F0CFFE044603F0FEFC1A
:104F200000B21E4948804720FFF7B2FF064603F053
:104F30005BFD054618488168284603F0BDFE04461F
:104F400003F0ECFC00B215498880B1F9000003F0D1
:104F50004BFD0446124A1349FFF7CAFA124908608A
:104F60000E49B1F9020003F03FFD04460C4A0D4919
:104F70001831FFF7BDFA0C4948600849B1F904003F
:104F800003F032FD0446064A06493031FFF7B0FA15
:104F90000549886070BD00005C0100202A000020E7
:104FA0003000002094010020140100202DE9F0477A
:104FB00004460D46164631460A4803F075FD814603
:104FC00049464FF07E5003F0B3FB8046294603F07C
:104FD0003BFB07463946284603F0AAFB2060BDE8A4
:104FE000F0870000DB0FC94010B57521D020FCF719
:104FF00063FC0446204610BD2DE9F74F82B0514AAC
:105000000499906803F050FD05464E4A0399506894
:1050100003F04AFD06464B4A0299106803F044FD2E
:105020000746314603F010FB0446294603F00CFB0B
:1050300045490860434A0499506903F035FD054627
:10504000404A0399106903F02FFD06463D4A029934
:10505000D06803F029FD0746314603F0F5FA04460F
:10506000294603F0F1FA38494860364A0499106A33
:1050700003F01AFD0546334A0399D06903F014FD85
:105080000646304A0299906903F00EFD0746314604
:1050900003F0DAFA0446294603F0D6FA2A49886072
:1050A00008682A4903F000FD274908600868284974
:1050B00003F0FAFC244908604868244903F0F4FC32
:1050C000214948604868224903F0EEFC1E494860C7
:1050D00088681E4903F0E8FC1B49886088681D4900
:1050E00003F0EAFD184988608868194903F0DCFC80
:1050F000154988600A465168506803F0D5FC124A89
:1051000001901168106803F0CFFC82460E4A916846
:10511000906803F0C9FC8346514603F095FA814636
:10512000019903F091FA044603F062FA074602F08F
:1051300016FB054602F0EEFC0349C86005B0BDE869
:10514000F08F0000080400206C0700200AE81C3BD8
:105150000000C8420AE81C4170B504460D460849E3
:10516000206803F0A1FC28600549606803F09CFCFE
:1051700068600349A06803F097FCA86070BD000058
:10518000797D8B3A10B50F48007800F00300401C81
:105190000C4908700846007800F00300012806D189
:1051A00002F088F902F0BEF90749886008E002F0D1
:1051B0004BF902F0BDF8044908600020014908706D
:1051C00010BD0000A2000020BC0400202DE9F04129
:1051D00004460E484168204603F0AAFA06464FF0FE
:1051E0007E5103F061FC05460949284600F0A2FF04
:1051F00007464FF07E5103F054FD0646054903F083
:1052000053FC0249C860BDE8F0810000BC040020E6
:10521000B1DC423ED048874A10B5FFF7B3FF1248D1
:105220004078642804DC10484078401C0E494870DF
:105230000D48407863280DD10C48007820F001001B
:10524000401C0A4908700A48006809494860086813
:10525000FFF7BCFF0548007800F0010018B10449D1
:105260000868FFF7B3FF10BDA2000020A0000020D7
:10527000BC04002010B586B004462C4800790128F3
:1052800052D12A484088B0F5FA7F19DA274A2168B6
:10529000106903F0D9F925490861244A6168506909
:1052A00003F0D2F921494861204AA168906903F0CE
:1052B000CBF91E49886108464088401C488033E08D
:1052C00000201A4948800869194903F031FA174942
:1052D00088624869164903F02BFA1449C862886944
:1052E000134903F025FA114908630846006BC96A9F
:1052F0000E4A926A0F4BD3F89830CDE90232CDE9CD
:1053000004100C48D0F894000A49D1F89010CDE967
:1053100000100848D0F88030C26F816F2420FFF75A
:1053200079FB00200149087106B010BD240200205D
:105330000000FA435802002010B51B4890F82400E2
:10534000C0F38100012810D117494868174903F0BC
:1053500077FC0AD814498868002103F0ABFA04D11D
:1053600013480088401C124908800F4890F8240018
:10537000C0F38100012816D10B4948680B4903F09E
:105380005FFC10D808498868002103F093FA0AD11D
:1053900007480088B0F5167F05DB00200449088027
:1053A00001200871487110BDE00300200000C841D1
:1053B0002402002010B51048416AC0F88C100F4834
:1053C00001680D48C0F89010843000F03FFE0A4894
:1053D000016DC0F8B810094841680748C0F8BC1012
:1053E000B03000F033FE054881680348C0F8E8108B
:1053F000DC3000F02BFE10BDCC0400206801002042
:1054000070B52E484088B0F5AF7F0DDB2B48408843
:1054100040F28A21884207DC2948007820F0F00019
:1054200020302749087019E02448408840F28A213A
:10543000884207DD2248007820F0F0003030204913
:1054400008700BE01D484088B0F5AF7F06DA1C48B5
:10545000007820F0F00010301949087018480078E2
:105460000009012804D0022805D0032809D105E04D
:10547000FFF72CF906E000F051F803E001F0C2FA62
:1054800000E000BF00BF0F48816B0F48C0F840111B
:1054900000F59A7000F0DAFD0C49088803F0BCFAB8
:1054A00005460948D0F85811284603F0CDF80446BF
:1054B00003F07AFA0549488070BD0000E00300203F
:1054C000AC00002098070020CC040020A800002099
:1054D0002DE9F04704464FF07C51204603F0E4FAF2
:1054E000814625462E460C48A0EB660635462946E1
:1054F000484603F0D9FA8246294603F0D5FA804699
:105500004FF07F5103F0CDFB0746294603F0CCFA5C
:1055100005462846BDE8F087DF59375F10B51349C7
:10552000D1F86801002103F0C5F904D11048816E5B
:105530000E48C0F868110F480078401C0D490870EB
:105540000846007802280FDB002008700848816EAA
:105550000648C0F86C1100F5B07000F077FD034804
:10556000D0F88411C0F83C1110BD0000CC0400201C
:1055700098070020A400002008B501211820FCF79E
:105580000FFC10208DF8030003208DF802004FF46B
:105590006040ADF8000069460948FCF7A6F8102005
:1055A0008DF8030003208DF802004FF40040ADF8A1
:1055B000000069460348FCF798F800F047F808BD7A
:1055C00000100140000C0140012802D1C103094A2A
:1055D0001161022802D14103064A1161032803D157
:1055E0004FF40041044A1160042802D1C102014A6B
:1055F0001161704700100140100C014000B50120FE
:10560000FFF7E2FF0220FFF7DFFF0320FFF7DCFFD9
:105610000420FFF7D9FF00BD012802D1C103094AC8
:105620005161022802D14103064A5161032803D186
:105630004FF40041044A1160042802D1C102014A1A
:105640005161704700100140140C014000B5012069
:10565000FFF7E2FF0220FFF7DFFF0320FFF7DCFF89
:105660000420FFF7D9FF00BD012805D10F49C96803
:1056700081F400410D4AD160022805D10B49C96867
:1056800081F48041094AD160032805D1084909689D
:1056900081F40041064A1160042805D10349C96814
:1056A00081F40051014AD1607047000000100140B0
:1056B0000C0C01400FB597B01C991A9803F0F4F93F
:1056C0000E901D9903F0F0F900210F9003F0F2F80D
:1056D00001D11BB000BDFE4802F0BAF81D99084682
:1056E00003F0E2F90E901C99084603F0DDF90C90E6
:1056F0001A99084603F0D8F90B900C9902F0A4FF10
:105700000D900E9902F0A0FF0F90FFF7E1FE1690AA
:1057100016991A9803F0C8F91A9016991C9803F074
:10572000C3F91C9016991D9803F0BEF91D90E94825
:10573000C06A1590E748806B1490E648406C13905F
:1057400014991D9803F0B0F90F9013991C9803F069
:10575000ABF90E900F9903F0AFFA129013991A98C3
:1057600003F0A2F90F9015991D9803F09DF90E9082
:105770000F9903F0A1FA119015991C9803F094F970
:105780000F9014991A9803F08FF90E900F9903F067
:1057900093FA1090D049129803F086F90F90CF48F1
:1057A00001680F9802F050FFCC490860CA4911986F
:1057B00003F07AF90F90CA4801680F9802F044FF8D
:1057C000C7490860C449109803F06EF90F90C548A6
:1057D00001680F9802F038FFC24908604FF07C5012
:1057E000129903F061F90E90179902F02DFF0F90B6
:1057F000BA4801680F9802F027FF17904FF07C50CD
:10580000119903F051F90E90189902F01DFF0F90B5
:10581000B34801680F9802F017FF18904FF07C50C2
:10582000109903F041F90E90199902F00DFF0F90B5
:10583000AC4801680F9802F007FF1990AA4819991F
:10584000006803F031F90C90A8481899006803F03B
:105850002BF90A90A648006880F00040089017993C
:1058600003F022F909900A9903F026FA0B900C999B
:1058700003F022FA0D909648C06801460C900D98EE
:1058800003F012F99B490E9003F00EF90F909A481D
:1058900001680F9802F0D8FE97490860924818995D
:1058A000006803F001F90C9090481999006803F022
:1058B000FBF80A9090480168179803F0F5F80990F2
:1058C0000A9902F0C1FE0B900C9903F0F5F90D90C6
:1058D0007F48C06801460C900D9803F0E5F88549B3
:1058E0000E9003F0E1F80F90814801680F9802F0E4
:1058F000ABFE7F4908607C480168179803F0D4F834
:105900000C907B481999006803F0CEF80A907A4809
:105910001899006803F0C8F809900A9903F0CCF9C7
:105920000B900C9902F090FE0D906948C0680146FA
:105930000C900D9803F0B8F86E490E9003F0B4F88F
:105940000F906A4801680F9802F07EFE6749086070
:1059500008460168179803F0A7F80C906448189956
:10596000006803F0A1F80A9063481999006803F0F1
:105970009BF809900A9902F067FE0B900C9903F0CE
:105980009BF90D905248C06801460C900D9803F0A9
:105990008BF858490E9003F087F80F905248016831
:1059A0000F9802F051FE50490860084601680068EF
:1059B00003F07AF80E904D480168006803F074F81F
:1059C0000C904B480168006803F06EF80A904A4852
:1059D0000168006803F068F809900A9902F034FE43
:1059E0000B900C9902F030FE0D900E9902F02CFEF7
:1059F0000F90FFF76DFD16903F481699006803F071
:105A000053F83D4908603A481699006803F04CF88D
:105A10003749086035481699006803F045F833495E
:105A2000086031481699006803F03EF82E49086076
:105A300008460168006803F037F806902B480168B3
:105A4000006803F031F8049029480168006803F009
:105A50002BF8029028480168006803F025F80190AF
:105A6000029903F029F90390049903F025F90590B0
:105A7000069902F0E9FD079002F0BAFDCDE90A01AE
:105A8000194801681948006803F00EF80590184895
:105A900001681948006803F007F80490059902F0BE
:105AA000D3FD4FF08041069002F0FEFF079002F018
:105AB0009FFDCDE90801DDE90A23FEF7CDFA0022BA
:105AC0000E4BCDE90C0102F0B9FACDE90E0117E059
:105AD000800400200804002017B7D1387800002087
